{
  "_format": "hh-sol-artifact-1",
  "contractName": "CarRegistry",
  "sourceName": "contracts/CarRegistry.sol",
  "abi": [
    {
      "inputs": [],
      "stateMutability": "nonpayable",
      "type": "constructor"
    },
    {
      "anonymous": false,
      "inputs": [
        {
          "indexed": true,
          "internalType": "uint256",
          "name": "carId",
          "type": "uint256"
        },
        {
          "indexed": true,
          "internalType": "address",
          "name": "oldOwner",
          "type": "address"
        },
        {
          "indexed": true,
          "internalType": "address",
          "name": "newOwner",
          "type": "address"
        }
      ],
      "name": "OwnershipTransferred",
      "type": "event"
    },
    {
      "inputs": [
        {
          "internalType": "uint256",
          "name": "carId",
          "type": "uint256"
        },
        {
          "internalType": "address",
          "name": "ownerA",
          "type": "address"
        },
        {
          "internalType": "address",
          "name": "ownerB",
          "type": "address"
        }
      ],
      "name": "assignOwnership",
      "outputs": [],
      "stateMutability": "nonpayable",
      "type": "function"
    },
    {
      "inputs": [
        {
          "internalType": "uint256",
          "name": "",
          "type": "uint256"
        }
      ],
      "name": "cars",
      "outputs": [
        {
          "internalType": "uint256",
          "name": "id",
          "type": "uint256"
        },
        {
          "internalType": "address",
          "name": "owner",
          "type": "address"
        }
      ],
      "stateMutability": "view",
      "type": "function"
    }
  ],
  "bytecode": "0x608060405234801561001057600080fd5b50610436806100206000396000f3fe608060405234801561001057600080fd5b50600436106100365760003560e01c80632f24b19e1461003b578063f7746e3614610057575b600080fd5b610055600480360381019061005091906102bc565b610088565b005b610071600480360381019061006c919061030f565b6101df565b60405161007f92919061035a565b60405180910390f35b8173ffffffffffffffffffffffffffffffffffffffff1660008085815260200190815260200160002060010160009054906101000a900473ffffffffffffffffffffffffffffffffffffffff1673ffffffffffffffffffffffffffffffffffffffff161461012b576040517f08c379a0000000000000000000000000000000000000000000000000000000008152600401610122906103e0565b60405180910390fd5b8060008085815260200190815260200160002060010160006101000a81548173ffffffffffffffffffffffffffffffffffffffff021916908373ffffffffffffffffffffffffffffffffffffffff1602179055508073ffffffffffffffffffffffffffffffffffffffff168273ffffffffffffffffffffffffffffffffffffffff16847f16b85f49bf01212961345d3016c9a531894accf62eb7680f2045d79185cc0ec060405160405180910390a4505050565b60006020528060005260406000206000915090508060000154908060010160009054906101000a900473ffffffffffffffffffffffffffffffffffffffff16905082565b600080fd5b6000819050919050565b61023b81610228565b811461024657600080fd5b50565b60008135905061025881610232565b92915050565b600073ffffffffffffffffffffffffffffffffffffffff82169050919050565b60006102898261025e565b9050919050565b6102998161027e565b81146102a457600080fd5b50565b6000813590506102b681610290565b92915050565b6000806000606084860312156102d5576102d4610223565b5b60006102e386828701610249565b93505060206102f4868287016102a7565b9250506040610305868287016102a7565b9150509250925092565b60006020828403121561032557610324610223565b5b600061033384828501610249565b91505092915050565b61034581610228565b82525050565b6103548161027e565b82525050565b600060408201905061036f600083018561033c565b61037c602083018461034b565b9392505050565b600082825260208201905092915050565b7f4f776e65727368697020766572696669636174696f6e206661696c6564000000600082015250565b60006103ca601d83610383565b91506103d582610394565b602082019050919050565b600060208201905081810360008301526103f9816103bd565b905091905056fea2646970667358221220c2d141525e5d61915986951a0d5821b96e9679f0055c23161e424fac8a23913664736f6c63430008130033",
  "linkReferences": {},
  "deployedLinkReferences": {}
}